{
  "contractName": "ManagerContract",
  "abi": [
    {
      "constant": true,
      "inputs": [
        {
          "name": "",
          "type": "address"
        }
      ],
      "name": "doesCategoryExist",
      "outputs": [
        {
          "name": "",
          "type": "bool"
        }
      ],
      "payable": false,
      "stateMutability": "view",
      "type": "function"
    },
    {
      "constant": true,
      "inputs": [
        {
          "name": "",
          "type": "bytes32"
        }
      ],
      "name": "categoryAddress",
      "outputs": [
        {
          "name": "",
          "type": "address"
        }
      ],
      "payable": false,
      "stateMutability": "view",
      "type": "function"
    },
    {
      "constant": true,
      "inputs": [
        {
          "name": "",
          "type": "uint256"
        }
      ],
      "name": "categoryContractsList",
      "outputs": [
        {
          "name": "",
          "type": "address"
        }
      ],
      "payable": false,
      "stateMutability": "view",
      "type": "function"
    },
    {
      "anonymous": false,
      "inputs": [
        {
          "indexed": false,
          "name": "creator",
          "type": "address"
        },
        {
          "indexed": false,
          "name": "categoryAddress",
          "type": "address"
        },
        {
          "indexed": false,
          "name": "categoryName",
          "type": "bytes32"
        }
      ],
      "name": "CategoryCreated",
      "type": "event"
    },
    {
      "anonymous": false,
      "inputs": [
        {
          "indexed": false,
          "name": "creator",
          "type": "address"
        },
        {
          "indexed": false,
          "name": "votingAddress",
          "type": "address"
        },
        {
          "indexed": false,
          "name": "question",
          "type": "string"
        }
      ],
      "name": "VotingCreated",
      "type": "event"
    },
    {
      "constant": false,
      "inputs": [
        {
          "name": "_category",
          "type": "address"
        },
        {
          "name": "_question",
          "type": "string"
        },
        {
          "name": "_options",
          "type": "bytes32[]"
        },
        {
          "name": "_votingEndTime",
          "type": "uint256"
        },
        {
          "name": "_resultsEndTime",
          "type": "uint256"
        },
        {
          "name": "_isPrivate",
          "type": "bool"
        },
        {
          "name": "_permissions",
          "type": "address[]"
        }
      ],
      "name": "createVotingWithExistingCategory",
      "outputs": [],
      "payable": false,
      "stateMutability": "nonpayable",
      "type": "function"
    },
    {
      "constant": false,
      "inputs": [
        {
          "name": "_categoryName",
          "type": "bytes32"
        },
        {
          "name": "_question",
          "type": "string"
        },
        {
          "name": "_options",
          "type": "bytes32[]"
        },
        {
          "name": "_votingEndTime",
          "type": "uint256"
        },
        {
          "name": "_resultsEndTime",
          "type": "uint256"
        },
        {
          "name": "_isPrivate",
          "type": "bool"
        },
        {
          "name": "_permissions",
          "type": "address[]"
        }
      ],
      "name": "createVotingWithNewCategory",
      "outputs": [],
      "payable": false,
      "stateMutability": "nonpayable",
      "type": "function"
    },
    {
      "constant": true,
      "inputs": [],
      "name": "numberOfCategories",
      "outputs": [
        {
          "name": "",
          "type": "uint256"
        }
      ],
      "payable": false,
      "stateMutability": "view",
      "type": "function"
    }
  ],
  "bytecode": "0x608060405234801561001057600080fd5b50612c57806100206000396000f3fe608060405260043610610072576000357c010000000000000000000000000000000000000000000000000000000090048063492cdef3146100775780635d5cffac146102a7578063a515f564146104c1578063be1e786f1461052a578063ee3a490a146105a5578063f5e217da146105d0575b600080fd5b34801561008357600080fd5b506102a5600480360360e081101561009a57600080fd5b81019080803573ffffffffffffffffffffffffffffffffffffffff169060200190929190803590602001906401000000008111156100d757600080fd5b8201836020820111156100e957600080fd5b8035906020019184600183028401116401000000008311171561010b57600080fd5b91908080601f016020809104026020016040519081016040528093929190818152602001838380828437600081840152601f19601f8201169050808301925050505050505091929192908035906020019064010000000081111561016e57600080fd5b82018360208201111561018057600080fd5b803590602001918460208302840111640100000000831117156101a257600080fd5b919080806020026020016040519081016040528093929190818152602001838360200280828437600081840152601f19601f82011690508083019250505050505050919291929080359060200190929190803590602001909291908035151590602001909291908035906020019064010000000081111561022257600080fd5b82018360208201111561023457600080fd5b8035906020019184602083028401116401000000008311171561025657600080fd5b919080806020026020016040519081016040528093929190818152602001838360200280828437600081840152601f19601f82011690508083019250505050505050919291929050505061064b565b005b3480156102b357600080fd5b506104bf600480360360e08110156102ca57600080fd5b8101908080359060200190929190803590602001906401000000008111156102f157600080fd5b82018360208201111561030357600080fd5b8035906020019184600183028401116401000000008311171561032557600080fd5b91908080601f016020809104026020016040519081016040528093929190818152602001838380828437600081840152601f19601f8201169050808301925050505050505091929192908035906020019064010000000081111561038857600080fd5b82018360208201111561039a57600080fd5b803590602001918460208302840111640100000000831117156103bc57600080fd5b919080806020026020016040519081016040528093929190818152602001838360200280828437600081840152601f19601f82011690508083019250505050505050919291929080359060200190929190803590602001909291908035151590602001909291908035906020019064010000000081111561043c57600080fd5b82018360208201111561044e57600080fd5b8035906020019184602083028401116401000000008311171561047057600080fd5b919080806020026020016040519081016040528093929190818152602001838360200280828437600081840152601f19601f820116905080830192505050505050509192919290505050610a07565b005b3480156104cd57600080fd5b50610510600480360360208110156104e457600080fd5b81019080803573ffffffffffffffffffffffffffffffffffffffff169060200190929190505050610fea565b604051808215151515815260200191505060405180910390f35b34801561053657600080fd5b506105636004803603602081101561054d57600080fd5b810190808035906020019092919050505061100a565b604051808273ffffffffffffffffffffffffffffffffffffffff1673ffffffffffffffffffffffffffffffffffffffff16815260200191505060405180910390f35b3480156105b157600080fd5b506105ba61103d565b6040518082815260200191505060405180910390f35b3480156105dc57600080fd5b50610609600480360360208110156105f357600080fd5b8101908080359060200190929190505050611049565b604051808273ffffffffffffffffffffffffffffffffffffffff1673ffffffffffffffffffffffffffffffffffffffff16815260200191505060405180910390f35b600160008873ffffffffffffffffffffffffffffffffffffffff1673ffffffffffffffffffffffffffffffffffffffff16815260200190815260200160002060009054906101000a900460ff161515610732576040517f08c379a00000000000000000000000000000000000000000000000000000000081526004018080602001828103825260398152602001807f50726f766964656420616464726573737320646f6573206e6f7420706f696e7481526020017f20746f20616e206578697374696e672063617465676f7279210000000000000081525060400191505060405180910390fd5b600087905060008173ffffffffffffffffffffffffffffffffffffffff1663a72fd9ef8989898989896040518763ffffffff167c0100000000000000000000000000000000000000000000000000000000028152600401808060200180602001878152602001868152602001851515151581526020018060200184810384528a818151815260200191508051906020019080838360005b838110156107e45780820151818401526020810190506107c9565b50505050905090810190601f1680156108115780820380516001836020036101000a031916815260200191505b50848103835289818151815260200191508051906020019060200280838360005b8381101561084d578082015181840152602081019050610832565b50505050905001848103825285818151815260200191508051906020019060200280838360005b8381101561088f578082015181840152602081019050610874565b505050509050019950505050505050505050602060405180830381600087803b1580156108bb57600080fd5b505af11580156108cf573d6000803e3d6000fd5b505050506040513d60208110156108e557600080fd5b810190808051906020019092919050505090507f844945f17f80515313dea1207660743aa8aadf3fe293352737dda9668086ee7a33828a604051808473ffffffffffffffffffffffffffffffffffffffff1673ffffffffffffffffffffffffffffffffffffffff1681526020018373ffffffffffffffffffffffffffffffffffffffff1673ffffffffffffffffffffffffffffffffffffffff16815260200180602001828103825283818151815260200191508051906020019080838360005b838110156109c05780820151818401526020810190506109a5565b50505050905090810190601f1680156109ed5780820380516001836020036101000a031916815260200191505b5094505050505060405180910390a1505050505050505050565b600073ffffffffffffffffffffffffffffffffffffffff166002600089815260200190815260200160002060009054906101000a900473ffffffffffffffffffffffffffffffffffffffff1673ffffffffffffffffffffffffffffffffffffffff16141515610b04576040517f08c379a00000000000000000000000000000000000000000000000000000000081526004018080602001828103825260228152602001807f546869732063617465676f7279206e616d6520697320616c726561647920757381526020017f656400000000000000000000000000000000000000000000000000000000000081525060400191505060405180910390fd5b60008730610b10611087565b808381526020018273ffffffffffffffffffffffffffffffffffffffff1673ffffffffffffffffffffffffffffffffffffffff16815260200192505050604051809103906000f080158015610b69573d6000803e3d6000fd5b50905080600260008a815260200190815260200160002060006101000a81548173ffffffffffffffffffffffffffffffffffffffff021916908373ffffffffffffffffffffffffffffffffffffffff16021790555060018060008373ffffffffffffffffffffffffffffffffffffffff1673ffffffffffffffffffffffffffffffffffffffff16815260200190815260200160002060006101000a81548160ff02191690831515021790555060008190806001815401808255809150509060018203906000526020600020016000909192909190916101000a81548173ffffffffffffffffffffffffffffffffffffffff021916908373ffffffffffffffffffffffffffffffffffffffff160217905550507f7c57f5679f5f9b99379a8632ca6dc4c8dda5cfaebeb9a3d676c603f664b8bb7633828a604051808473ffffffffffffffffffffffffffffffffffffffff1673ffffffffffffffffffffffffffffffffffffffff1681526020018373ffffffffffffffffffffffffffffffffffffffff1673ffffffffffffffffffffffffffffffffffffffff168152602001828152602001935050505060405180910390a160008173ffffffffffffffffffffffffffffffffffffffff1663a72fd9ef8989898989896040518763ffffffff167c0100000000000000000000000000000000000000000000000000000000028152600401808060200180602001878152602001868152602001851515151581526020018060200184810384528a818151815260200191508051906020019080838360005b83811015610dc7578082015181840152602081019050610dac565b50505050905090810190601f168015610df45780820380516001836020036101000a031916815260200191505b50848103835289818151815260200191508051906020019060200280838360005b83811015610e30578082015181840152602081019050610e15565b50505050905001848103825285818151815260200191508051906020019060200280838360005b83811015610e72578082015181840152602081019050610e57565b505050509050019950505050505050505050602060405180830381600087803b158015610e9e57600080fd5b505af1158015610eb2573d6000803e3d6000fd5b505050506040513d6020811015610ec857600080fd5b810190808051906020019092919050505090507f844945f17f80515313dea1207660743aa8aadf3fe293352737dda9668086ee7a33828a604051808473ffffffffffffffffffffffffffffffffffffffff1673ffffffffffffffffffffffffffffffffffffffff1681526020018373ffffffffffffffffffffffffffffffffffffffff1673ffffffffffffffffffffffffffffffffffffffff16815260200180602001828103825283818151815260200191508051906020019080838360005b83811015610fa3578082015181840152602081019050610f88565b50505050905090810190601f168015610fd05780820380516001836020036101000a031916815260200191505b5094505050505060405180910390a1505050505050505050565b60016020528060005260406000206000915054906101000a900460ff1681565b60026020528060005260406000206000915054906101000a900473ffffffffffffffffffffffffffffffffffffffff1681565b60008080549050905090565b60008181548110151561105857fe5b906000526020600020016000915054906101000a900473ffffffffffffffffffffffffffffffffffffffff1681565b604051611b94806110988339019056fe608060405234801561001057600080fd5b50604051604080611b948339810180604052604081101561003057600080fd5b8101908080519060200190929190805190602001909291905050508160018190555080600260006101000a81548173ffffffffffffffffffffffffffffffffffffffff021916908373ffffffffffffffffffffffffffffffffffffffff1602179055505050611af0806100a46000396000f3fe60806040526004361062000061576000357c010000000000000000000000000000000000000000000000000000000090048063189569941462000066578063322aa8e31462000094578063a72fd9ef1462000113578063c435d68e1462000370575b600080fd5b3480156200007357600080fd5b506200007e6200039e565b6040518082815260200191505060405180910390f35b348015620000a157600080fd5b50620000d160048036036020811015620000ba57600080fd5b8101908080359060200190929190505050620003a4565b604051808273ffffffffffffffffffffffffffffffffffffffff1673ffffffffffffffffffffffffffffffffffffffff16815260200191505060405180910390f35b3480156200012057600080fd5b506200032e600480360360c08110156200013957600080fd5b81019080803590602001906401000000008111156200015757600080fd5b8201836020820111156200016a57600080fd5b803590602001918460018302840111640100000000831117156200018d57600080fd5b91908080601f016020809104026020016040519081016040528093929190818152602001838380828437600081840152601f19601f82011690508083019250505050505050919291929080359060200190640100000000811115620001f157600080fd5b8201836020820111156200020457600080fd5b803590602001918460208302840111640100000000831117156200022757600080fd5b919080806020026020016040519081016040528093929190818152602001838360200280828437600081840152601f19601f820116905080830192505050505050509192919290803590602001909291908035906020019092919080351515906020019092919080359060200190640100000000811115620002a857600080fd5b820183602082011115620002bb57600080fd5b80359060200191846020830284011164010000000083111715620002de57600080fd5b919080806020026020016040519081016040528093929190818152602001838360200280828437600081840152601f19601f820116905080830192505050505050509192919290505050620003e3565b604051808273ffffffffffffffffffffffffffffffffffffffff1673ffffffffffffffffffffffffffffffffffffffff16815260200191505060405180910390f35b3480156200037d57600080fd5b506200038862000853565b6040518082815260200191505060405180910390f35b60015481565b600081815481101515620003b457fe5b906000526020600020016000915054906101000a900473ffffffffffffffffffffffffffffffffffffffff1681565b6000600260009054906101000a900473ffffffffffffffffffffffffffffffffffffffff1673ffffffffffffffffffffffffffffffffffffffff163373ffffffffffffffffffffffffffffffffffffffff16141515620004d1576040517f08c379a000000000000000000000000000000000000000000000000000000000815260040180806020018281038252603d8152602001807f4f6e6c7920746865204d616e61676572436f6e7472616374206973206175746881526020017f6f726973656420746f206372656174652061206e657720766f74696e6700000081525060400191505060405180910390fd5b600087308888888888620004e46200085f565b80806020018873ffffffffffffffffffffffffffffffffffffffff1673ffffffffffffffffffffffffffffffffffffffff16815260200180602001878152602001868152602001851515151581526020018060200184810384528b818151815260200191508051906020019080838360005b838110156200057357808201518184015260208101905062000556565b50505050905090810190601f168015620005a15780820380516001836020036101000a031916815260200191505b50848103835289818151815260200191508051906020019060200280838360005b83811015620005df578082015181840152602081019050620005c2565b50505050905001848103825285818151815260200191508051906020019060200280838360005b838110156200062357808201518184015260208101905062000606565b505050509050019a5050505050505050505050604051809103906000f08015801562000653573d6000803e3d6000fd5b5090506000809050600090505b6000805490508160ff161015620007cc576000808260ff168154811015156200068557fe5b9060005260206000200160009054906101000a900473ffffffffffffffffffffffffffffffffffffffff1690508073ffffffffffffffffffffffffffffffffffffffff1663633d3aa56040518163ffffffff167c010000000000000000000000000000000000000000000000000000000002815260040160206040518083038186803b1580156200071557600080fd5b505afa1580156200072a573d6000803e3d6000fd5b505050506040513d60208110156200074157600080fd5b8101908080519060200190929190505050421115620007bd578260008360ff168154811015156200076e57fe5b9060005260206000200160006101000a81548173ffffffffffffffffffffffffffffffffffffffff021916908373ffffffffffffffffffffffffffffffffffffffff16021790555050620007cc565b50808060010191505062000660565b6000805490508160ff161415620008445760008290806001815401808255809150509060018203906000526020600020016000909192909190916101000a81548173ffffffffffffffffffffffffffffffffffffffff021916908373ffffffffffffffffffffffffffffffffffffffff160217905550505b81925050509695505050505050565b60008080549050905090565b60405161125480620008718339019056fe60806040523480156200001157600080fd5b506040516200125438038062001254833981018060405260e08110156200003757600080fd5b8101908080516401000000008111156200005057600080fd5b828101905060208101848111156200006757600080fd5b81518560018202830111640100000000821117156200008557600080fd5b5050929190602001805190602001909291908051640100000000811115620000ac57600080fd5b82810190506020810184811115620000c357600080fd5b8151856020820283011164010000000082111715620000e157600080fd5b505092919060200180519060200190929190805190602001909291908051906020019092919080516401000000008111156200011c57600080fd5b828101905060208101848111156200013357600080fd5b81518560208202830111640100000000821117156200015157600080fd5b505092919050505060144201841015151562000221576040517f08c379a00000000000000000000000000000000000000000000000000000000081526004018080602001828103825260498152602001807f566f74696e6720656e642074696d652068617320746f20626520736f6d65776881526020017f65726520696e207468652066757475726520286174206c65617374203230732081526020017f66726f6d206e6f7729000000000000000000000000000000000000000000000081525060600191505060405180910390fd5b601484018310151515620002e9576040517f08c379a00000000000000000000000000000000000000000000000000000000081526004018080602001828103825260448152602001807f526573756c747320656e642074696d652068617320746f206265206c6174657281526020017f207468616e20766f74696e6720656e642074696d6520286174206c656173742081526020017f323073290000000000000000000000000000000000000000000000000000000081525060600191505060405180910390fd5b60028551101515156200038a576040517f08c379a00000000000000000000000000000000000000000000000000000000081526004018080602001828103825260358152602001807f596f752063616e6e6f742063726561746520612062616c6c6f7420776974686f81526020017f7574206174206c656173742032206f7074696f6e73000000000000000000000081525060400191505060405180910390fd5b8660009080519060200190620003a2929190620004d3565b5085600160006101000a81548173ffffffffffffffffffffffffffffffffffffffff021916908373ffffffffffffffffffffffffffffffffffffffff1602179055508460029080519060200190620003fc9291906200055a565b50836003819055508260048190555081600560006101000a81548160ff02191690831515021790555060008090505b8151811015620004b35760016006600084848151811015156200044a57fe5b9060200190602002015173ffffffffffffffffffffffffffffffffffffffff1673ffffffffffffffffffffffffffffffffffffffff16815260200190815260200160002060006101000a81548160ff02191690831515021790555080806001019150506200042b565b508451600881620004c59190620005ac565b50505050505050506200062b565b828054600181600116156101000203166002900490600052602060002090601f016020900481019282601f106200051657805160ff191683800117855562000547565b8280016001018555821562000547579182015b828111156200054657825182559160200191906001019062000529565b5b509050620005569190620005db565b5090565b82805482825590600052602060002090810192821562000599579160200282015b82811115620005985782518255916020019190600101906200057b565b5b509050620005a8919062000603565b5090565b815481835581811115620005d657818360005260206000209182019101620005d59190620005db565b5b505050565b6200060091905b80821115620005fc576000816000905550600101620005e2565b5090565b90565b6200062891905b80821115620006245760008160009055506001016200060a565b5090565b90565b610c19806200063b6000396000f3fe6080604052600436106100b4576000357c0100000000000000000000000000000000000000000000000000000000900480630121b93f146100b957806309eef43e146100f45780631ea736e01461015d5780632e2326d5146101885780633fad9ae0146101f1578063409e220514610281578063633d3aa5146102d05780637b536a87146102fb57806387ed3ecf14610414578063ef2fd54d1461043f578063ef430aa6146104ab578063faff660e14610502575b600080fd5b3480156100c557600080fd5b506100f2600480360360208110156100dc57600080fd5b8101908080359060200190929190505050610531565b005b34801561010057600080fd5b506101436004803603602081101561011757600080fd5b81019080803573ffffffffffffffffffffffffffffffffffffffff1690602001909291905050506107e4565b604051808215151515815260200191505060405180910390f35b34801561016957600080fd5b50610172610804565b6040518082815260200191505060405180910390f35b34801561019457600080fd5b506101d7600480360360208110156101ab57600080fd5b81019080803573ffffffffffffffffffffffffffffffffffffffff16906020019092919050505061080a565b604051808215151515815260200191505060405180910390f35b3480156101fd57600080fd5b50610206610860565b6040518080602001828103825283818151815260200191508051906020019080838360005b8381101561024657808201518184015260208101905061022b565b50505050905090810190601f1680156102735780820380516001836020036101000a031916815260200191505b509250505060405180910390f35b34801561028d57600080fd5b506102ba600480360360208110156102a457600080fd5b81019080803590602001909291905050506108fe565b6040518082815260200191505060405180910390f35b3480156102dc57600080fd5b506102e5610921565b6040518082815260200191505060405180910390f35b34801561030757600080fd5b50610310610927565b60405180806020018673ffffffffffffffffffffffffffffffffffffffff1673ffffffffffffffffffffffffffffffffffffffff16815260200180602001858152602001848152602001838103835288818151815260200191508051906020019080838360005b83811015610392578082015181840152602081019050610377565b50505050905090810190601f1680156103bf5780820380516001836020036101000a031916815260200191505b50838103825286818151815260200191508051906020019060200280838360005b838110156103fb5780820151818401526020810190506103e0565b5050505090500197505050505050505060405180910390f35b34801561042057600080fd5b50610429610a5c565b6040518082815260200191505060405180910390f35b34801561044b57600080fd5b50610454610a69565b6040518080602001828103825283818151815260200191508051906020019060200280838360005b8381101561049757808201518184015260208101905061047c565b505050509050019250505060405180910390f35b3480156104b757600080fd5b506104c0610bb4565b604051808273ffffffffffffffffffffffffffffffffffffffff1673ffffffffffffffffffffffffffffffffffffffff16815260200191505060405180910390f35b34801561050e57600080fd5b50610517610bda565b604051808215151515815260200191505060405180910390f35b33600560009054906101000a900460ff1615806105af5750600560009054906101000a900460ff1680156105ae5750600660008273ffffffffffffffffffffffffffffffffffffffff1673ffffffffffffffffffffffffffffffffffffffff16815260200190815260200160002060009054906101000a900460ff165b5b1515610623576040517f08c379a00000000000000000000000000000000000000000000000000000000081526004018080602001828103825260208152602001807f596f7520646f6e2774206861766520766f74696e67207065726d697373696f6e81525060200191505060405180910390fd5b600354421115151561069d576040517f08c379a00000000000000000000000000000000000000000000000000000000081526004018080602001828103825260158152602001807f4974277320746f6f206c61746520746f20766f7465000000000000000000000081525060200191505060405180910390fd5b600760003373ffffffffffffffffffffffffffffffffffffffff1673ffffffffffffffffffffffffffffffffffffffff16815260200190815260200160002060009054906101000a900460ff1615151561075f576040517f08c379a00000000000000000000000000000000000000000000000000000000081526004018080602001828103825260168152602001807f596f75206861766520616c726561647920766f7465640000000000000000000081525060200191505060405180910390fd5b60088281548110151561076e57fe5b90600052602060002001600081548092919060010191905055506001600760003373ffffffffffffffffffffffffffffffffffffffff1673ffffffffffffffffffffffffffffffffffffffff16815260200190815260200160002060006101000a81548160ff0219169083151502179055505050565b60076020528060005260406000206000915054906101000a900460ff1681565b60035481565b6000600660008373ffffffffffffffffffffffffffffffffffffffff1673ffffffffffffffffffffffffffffffffffffffff16815260200190815260200160002060009054906101000a900460ff169050919050565b60008054600181600116156101000203166002900480601f0160208091040260200160405190810160405280929190818152602001828054600181600116156101000203166002900480156108f65780601f106108cb576101008083540402835291602001916108f6565b820191906000526020600020905b8154815290600101906020018083116108d957829003601f168201915b505050505081565b60028181548110151561090d57fe5b906000526020600020016000915090505481565b60045481565b6060600060606000806000600160009054906101000a900473ffffffffffffffffffffffffffffffffffffffff166002600354600454848054600181600116156101000203166002900480601f0160208091040260200160405190810160405280929190818152602001828054600181600116156101000203166002900480156109f25780601f106109c7576101008083540402835291602001916109f2565b820191906000526020600020905b8154815290600101906020018083116109d557829003601f168201915b5050505050945082805480602002602001604051908101604052809291908181526020018280548015610a4457602002820191906000526020600020905b815481526020019060010190808311610a30575b50505050509250945094509450945094509091929394565b6000600280549050905090565b60606003544210151515610ae5576040517f08c379a000000000000000000000000000000000000000000000000000000000815260040180806020018281038252601f8152602001807f4974277320746f6f206561726c7920746f207365652074686520766f7465730081525060200191505060405180910390fd5b60045442101515610b5e576040517f08c379a000000000000000000000000000000000000000000000000000000000815260040180806020018281038252601e8152602001807f4974277320746f6f206c61746520746f207365652074686520766f746573000081525060200191505060405180910390fd5b6008805480602002602001604051908101604052809291908181526020018280548015610baa57602002820191906000526020600020905b815481526020019060010190808311610b96575b5050505050905090565b600160009054906101000a900473ffffffffffffffffffffffffffffffffffffffff1681565b600560009054906101000a900460ff168156fea165627a7a72305820974558c1e7fa60b932e5a1e2964d845fcacfa297c02fc143bd88363e4418dacd0029a165627a7a72305820720cff17f5f46d6e6b428e194abb4595563b0e3f70a6feb9774757278e8f3e780029a165627a7a7230582098912fd982e1849228acbeba1ab205b34968c59e0022764c074a2a6be02ef3ba0029",
  "source": "pragma solidity 0.5.1;\n\nimport \"./VotingContract.sol\";\nimport \"./CategoryContract.sol\";\n\n\ncontract ManagerContract {\n   \n    address[] public categoryContractsList;\n    mapping(address => bool) public doesCategoryExist;\n    mapping(bytes32 => address) public categoryAddress;\n\n    event CategoryCreated(address creator, address categoryAddress, bytes32 categoryName);\n    event VotingCreated(address creator, address votingAddress, string question);\n\n    function createVotingWithExistingCategory(address _category,\n        string memory _question,\n        bytes32[] memory _options,\n        uint256 _votingEndTime,\n        uint256 _resultsEndTime,\n        bool _isPrivate,\n        address[] memory _permissions) public {\n\n        require(doesCategoryExist[_category], \"Provided addresss does not point to an existing category!\");\n        CategoryContract cc = CategoryContract(_category);\n        address vcAddress = cc.createVotingContract(_question, _options, _votingEndTime, _resultsEndTime, _isPrivate, _permissions);\n        emit VotingCreated(msg.sender, vcAddress, _question);\n    }\n\n    function createVotingWithNewCategory(bytes32 _categoryName,\n        string memory _question,\n        bytes32[] memory _options,\n        uint256 _votingEndTime,\n        uint256 _resultsEndTime,\n        bool _isPrivate,\n        address[] memory _permissions) public {\n        \n        require(categoryAddress[_categoryName] == address(0), \"This category name is already used\");\n\n        CategoryContract cc = new CategoryContract(_categoryName, address(this)); \n        categoryAddress[_categoryName] = address(cc);\n        doesCategoryExist[address(cc)] = true;\n        categoryContractsList.push(address(cc));\n        emit CategoryCreated(msg.sender, address(cc), _categoryName);\n\n        address vcAddress = cc.createVotingContract(_question, _options, _votingEndTime, _resultsEndTime, _isPrivate, _permissions);\n        emit VotingCreated(msg.sender, vcAddress, _question);\n    }\n\n    function numberOfCategories() public view returns(uint) {\n        return categoryContractsList.length;\n    }\n}",
  "sourcePath": "/home/aw/pw/inynierka/voting-dapp/contracts/ManagerContract.sol",
  "compiler": {
    "name": "solc",
    "version": "0.5.1+commit.c8a2cb62.Emscripten.clang"
  },
  "schemaVersion": "3.0.0",
  "updatedAt": "2019-01-14T11:41:02.380Z",
  "devdoc": {
    "methods": {}
  },
  "userdoc": {
    "methods": {}
  }
}