{
  "contractName": "VotingContract",
  "abi": [
    {
      "constant": true,
      "inputs": [
        {
          "name": "",
          "type": "address"
        }
      ],
      "name": "hasVoted",
      "outputs": [
        {
          "name": "",
          "type": "bool"
        }
      ],
      "payable": false,
      "stateMutability": "view",
      "type": "function"
    },
    {
      "constant": true,
      "inputs": [],
      "name": "votingEndTime",
      "outputs": [
        {
          "name": "",
          "type": "uint256"
        }
      ],
      "payable": false,
      "stateMutability": "view",
      "type": "function"
    },
    {
      "constant": true,
      "inputs": [],
      "name": "question",
      "outputs": [
        {
          "name": "",
          "type": "string"
        }
      ],
      "payable": false,
      "stateMutability": "view",
      "type": "function"
    },
    {
      "constant": true,
      "inputs": [
        {
          "name": "",
          "type": "uint256"
        }
      ],
      "name": "options",
      "outputs": [
        {
          "name": "",
          "type": "bytes32"
        }
      ],
      "payable": false,
      "stateMutability": "view",
      "type": "function"
    },
    {
      "constant": true,
      "inputs": [],
      "name": "resultsEndTime",
      "outputs": [
        {
          "name": "",
          "type": "uint256"
        }
      ],
      "payable": false,
      "stateMutability": "view",
      "type": "function"
    },
    {
      "constant": true,
      "inputs": [],
      "name": "category",
      "outputs": [
        {
          "name": "",
          "type": "address"
        }
      ],
      "payable": false,
      "stateMutability": "view",
      "type": "function"
    },
    {
      "constant": true,
      "inputs": [],
      "name": "isPrivate",
      "outputs": [
        {
          "name": "",
          "type": "bool"
        }
      ],
      "payable": false,
      "stateMutability": "view",
      "type": "function"
    },
    {
      "inputs": [
        {
          "name": "_question",
          "type": "string"
        },
        {
          "name": "_category",
          "type": "address"
        },
        {
          "name": "_options",
          "type": "bytes32[]"
        },
        {
          "name": "_votingEndTime",
          "type": "uint256"
        },
        {
          "name": "_resultsEndTime",
          "type": "uint256"
        },
        {
          "name": "_isPrivate",
          "type": "bool"
        },
        {
          "name": "_permissions",
          "type": "address[]"
        }
      ],
      "payable": false,
      "stateMutability": "nonpayable",
      "type": "constructor"
    },
    {
      "constant": false,
      "inputs": [
        {
          "name": "_option",
          "type": "uint256"
        }
      ],
      "name": "vote",
      "outputs": [],
      "payable": false,
      "stateMutability": "nonpayable",
      "type": "function"
    },
    {
      "constant": true,
      "inputs": [],
      "name": "numberOfOptions",
      "outputs": [
        {
          "name": "",
          "type": "uint256"
        }
      ],
      "payable": false,
      "stateMutability": "view",
      "type": "function"
    },
    {
      "constant": true,
      "inputs": [],
      "name": "viewVotes",
      "outputs": [
        {
          "name": "",
          "type": "uint256[]"
        }
      ],
      "payable": false,
      "stateMutability": "view",
      "type": "function"
    },
    {
      "constant": true,
      "inputs": [],
      "name": "viewContractInfo",
      "outputs": [
        {
          "name": "",
          "type": "string"
        },
        {
          "name": "",
          "type": "address"
        },
        {
          "name": "",
          "type": "bytes32[]"
        },
        {
          "name": "",
          "type": "uint256"
        },
        {
          "name": "",
          "type": "uint256"
        }
      ],
      "payable": false,
      "stateMutability": "view",
      "type": "function"
    },
    {
      "constant": true,
      "inputs": [
        {
          "name": "user",
          "type": "address"
        }
      ],
      "name": "isPrivileged",
      "outputs": [
        {
          "name": "",
          "type": "bool"
        }
      ],
      "payable": false,
      "stateMutability": "view",
      "type": "function"
    }
  ],
  "bytecode": "0x60806040523480156200001157600080fd5b506040516200125438038062001254833981018060405260e08110156200003757600080fd5b8101908080516401000000008111156200005057600080fd5b828101905060208101848111156200006757600080fd5b81518560018202830111640100000000821117156200008557600080fd5b5050929190602001805190602001909291908051640100000000811115620000ac57600080fd5b82810190506020810184811115620000c357600080fd5b8151856020820283011164010000000082111715620000e157600080fd5b505092919060200180519060200190929190805190602001909291908051906020019092919080516401000000008111156200011c57600080fd5b828101905060208101848111156200013357600080fd5b81518560208202830111640100000000821117156200015157600080fd5b505092919050505060144201841015151562000221576040517f08c379a00000000000000000000000000000000000000000000000000000000081526004018080602001828103825260498152602001807f566f74696e6720656e642074696d652068617320746f20626520736f6d65776881526020017f65726520696e207468652066757475726520286174206c65617374203230732081526020017f66726f6d206e6f7729000000000000000000000000000000000000000000000081525060600191505060405180910390fd5b601484018310151515620002e9576040517f08c379a00000000000000000000000000000000000000000000000000000000081526004018080602001828103825260448152602001807f526573756c747320656e642074696d652068617320746f206265206c6174657281526020017f207468616e20766f74696e6720656e642074696d6520286174206c656173742081526020017f323073290000000000000000000000000000000000000000000000000000000081525060600191505060405180910390fd5b60028551101515156200038a576040517f08c379a00000000000000000000000000000000000000000000000000000000081526004018080602001828103825260358152602001807f596f752063616e6e6f742063726561746520612062616c6c6f7420776974686f81526020017f7574206174206c656173742032206f7074696f6e73000000000000000000000081525060400191505060405180910390fd5b8660009080519060200190620003a2929190620004d3565b5085600160006101000a81548173ffffffffffffffffffffffffffffffffffffffff021916908373ffffffffffffffffffffffffffffffffffffffff1602179055508460029080519060200190620003fc9291906200055a565b50836003819055508260048190555081600560006101000a81548160ff02191690831515021790555060008090505b8151811015620004b35760016006600084848151811015156200044a57fe5b9060200190602002015173ffffffffffffffffffffffffffffffffffffffff1673ffffffffffffffffffffffffffffffffffffffff16815260200190815260200160002060006101000a81548160ff02191690831515021790555080806001019150506200042b565b508451600881620004c59190620005ac565b50505050505050506200062b565b828054600181600116156101000203166002900490600052602060002090601f016020900481019282601f106200051657805160ff191683800117855562000547565b8280016001018555821562000547579182015b828111156200054657825182559160200191906001019062000529565b5b509050620005569190620005db565b5090565b82805482825590600052602060002090810192821562000599579160200282015b82811115620005985782518255916020019190600101906200057b565b5b509050620005a8919062000603565b5090565b815481835581811115620005d657818360005260206000209182019101620005d59190620005db565b5b505050565b6200060091905b80821115620005fc576000816000905550600101620005e2565b5090565b90565b6200062891905b80821115620006245760008160009055506001016200060a565b5090565b90565b610c19806200063b6000396000f3fe6080604052600436106100b4576000357c0100000000000000000000000000000000000000000000000000000000900480630121b93f146100b957806309eef43e146100f45780631ea736e01461015d5780632e2326d5146101885780633fad9ae0146101f1578063409e220514610281578063633d3aa5146102d05780637b536a87146102fb57806387ed3ecf14610414578063ef2fd54d1461043f578063ef430aa6146104ab578063faff660e14610502575b600080fd5b3480156100c557600080fd5b506100f2600480360360208110156100dc57600080fd5b8101908080359060200190929190505050610531565b005b34801561010057600080fd5b506101436004803603602081101561011757600080fd5b81019080803573ffffffffffffffffffffffffffffffffffffffff1690602001909291905050506107e4565b604051808215151515815260200191505060405180910390f35b34801561016957600080fd5b50610172610804565b6040518082815260200191505060405180910390f35b34801561019457600080fd5b506101d7600480360360208110156101ab57600080fd5b81019080803573ffffffffffffffffffffffffffffffffffffffff16906020019092919050505061080a565b604051808215151515815260200191505060405180910390f35b3480156101fd57600080fd5b50610206610860565b6040518080602001828103825283818151815260200191508051906020019080838360005b8381101561024657808201518184015260208101905061022b565b50505050905090810190601f1680156102735780820380516001836020036101000a031916815260200191505b509250505060405180910390f35b34801561028d57600080fd5b506102ba600480360360208110156102a457600080fd5b81019080803590602001909291905050506108fe565b6040518082815260200191505060405180910390f35b3480156102dc57600080fd5b506102e5610921565b6040518082815260200191505060405180910390f35b34801561030757600080fd5b50610310610927565b60405180806020018673ffffffffffffffffffffffffffffffffffffffff1673ffffffffffffffffffffffffffffffffffffffff16815260200180602001858152602001848152602001838103835288818151815260200191508051906020019080838360005b83811015610392578082015181840152602081019050610377565b50505050905090810190601f1680156103bf5780820380516001836020036101000a031916815260200191505b50838103825286818151815260200191508051906020019060200280838360005b838110156103fb5780820151818401526020810190506103e0565b5050505090500197505050505050505060405180910390f35b34801561042057600080fd5b50610429610a5c565b6040518082815260200191505060405180910390f35b34801561044b57600080fd5b50610454610a69565b6040518080602001828103825283818151815260200191508051906020019060200280838360005b8381101561049757808201518184015260208101905061047c565b505050509050019250505060405180910390f35b3480156104b757600080fd5b506104c0610bb4565b604051808273ffffffffffffffffffffffffffffffffffffffff1673ffffffffffffffffffffffffffffffffffffffff16815260200191505060405180910390f35b34801561050e57600080fd5b50610517610bda565b604051808215151515815260200191505060405180910390f35b33600560009054906101000a900460ff1615806105af5750600560009054906101000a900460ff1680156105ae5750600660008273ffffffffffffffffffffffffffffffffffffffff1673ffffffffffffffffffffffffffffffffffffffff16815260200190815260200160002060009054906101000a900460ff165b5b1515610623576040517f08c379a00000000000000000000000000000000000000000000000000000000081526004018080602001828103825260208152602001807f596f7520646f6e2774206861766520766f74696e67207065726d697373696f6e81525060200191505060405180910390fd5b600354421115151561069d576040517f08c379a00000000000000000000000000000000000000000000000000000000081526004018080602001828103825260158152602001807f4974277320746f6f206c61746520746f20766f7465000000000000000000000081525060200191505060405180910390fd5b600760003373ffffffffffffffffffffffffffffffffffffffff1673ffffffffffffffffffffffffffffffffffffffff16815260200190815260200160002060009054906101000a900460ff1615151561075f576040517f08c379a00000000000000000000000000000000000000000000000000000000081526004018080602001828103825260168152602001807f596f75206861766520616c726561647920766f7465640000000000000000000081525060200191505060405180910390fd5b60088281548110151561076e57fe5b90600052602060002001600081548092919060010191905055506001600760003373ffffffffffffffffffffffffffffffffffffffff1673ffffffffffffffffffffffffffffffffffffffff16815260200190815260200160002060006101000a81548160ff0219169083151502179055505050565b60076020528060005260406000206000915054906101000a900460ff1681565b60035481565b6000600660008373ffffffffffffffffffffffffffffffffffffffff1673ffffffffffffffffffffffffffffffffffffffff16815260200190815260200160002060009054906101000a900460ff169050919050565b60008054600181600116156101000203166002900480601f0160208091040260200160405190810160405280929190818152602001828054600181600116156101000203166002900480156108f65780601f106108cb576101008083540402835291602001916108f6565b820191906000526020600020905b8154815290600101906020018083116108d957829003601f168201915b505050505081565b60028181548110151561090d57fe5b906000526020600020016000915090505481565b60045481565b6060600060606000806000600160009054906101000a900473ffffffffffffffffffffffffffffffffffffffff166002600354600454848054600181600116156101000203166002900480601f0160208091040260200160405190810160405280929190818152602001828054600181600116156101000203166002900480156109f25780601f106109c7576101008083540402835291602001916109f2565b820191906000526020600020905b8154815290600101906020018083116109d557829003601f168201915b5050505050945082805480602002602001604051908101604052809291908181526020018280548015610a4457602002820191906000526020600020905b815481526020019060010190808311610a30575b50505050509250945094509450945094509091929394565b6000600280549050905090565b60606003544210151515610ae5576040517f08c379a000000000000000000000000000000000000000000000000000000000815260040180806020018281038252601f8152602001807f4974277320746f6f206561726c7920746f207365652074686520766f7465730081525060200191505060405180910390fd5b60045442101515610b5e576040517f08c379a000000000000000000000000000000000000000000000000000000000815260040180806020018281038252601e8152602001807f4974277320746f6f206c61746520746f207365652074686520766f746573000081525060200191505060405180910390fd5b6008805480602002602001604051908101604052809291908181526020018280548015610baa57602002820191906000526020600020905b815481526020019060010190808311610b96575b5050505050905090565b600160009054906101000a900473ffffffffffffffffffffffffffffffffffffffff1681565b600560009054906101000a900460ff168156fea165627a7a72305820974558c1e7fa60b932e5a1e2964d845fcacfa297c02fc143bd88363e4418dacd0029",
  "source": "pragma solidity 0.5.1;\n\n\ncontract VotingContract {\n    \n    string public question;\n    address public category;\n    bytes32[] public options;\n    uint256 public votingEndTime;\n    uint256 public resultsEndTime;\n    bool public isPrivate;\n    mapping(address => bool) internal permissions;\n    mapping(address => bool) public hasVoted;\n    uint256[] internal votes;\n\n    modifier hasPermission(address user) {\n        require(!isPrivate || (isPrivate && permissions[user]), \"You don't have voting permission\");\n        _;\n    }\n    \n    modifier isInVotingState() {\n        require(now <= votingEndTime, \"It's too late to vote\");\n        _;\n    }\n    \n    modifier isInResultsState() {\n        require(now <= resultsEndTime && now > votingEndTime, \"You cannot see the results right now\");\n        _;\n    }\n    \n    // TODO: Do we need some creator requirements?\n    constructor(string memory _question,\n        address _category,\n        bytes32[] memory _options,\n        uint256 _votingEndTime,\n        uint256 _resultsEndTime,\n        bool _isPrivate,\n        address[] memory _permissions) public {\n\n        require(_votingEndTime >= now + 20, \"Voting end time has to be somewhere in the future (at least 20s from now)\");\n        require(_resultsEndTime >= _votingEndTime + 20, \"Results end time has to be later than voting end time (at least 20s)\");\n        require(_options.length >= 2, \"You cannot create a ballot without at least 2 options\");\n                    \n        question = _question;\n        category = _category;\n        options = _options;\n        votingEndTime = _votingEndTime;\n        resultsEndTime = _resultsEndTime;\n        isPrivate = _isPrivate;\n        for (uint i = 0; i < _permissions.length; i++) {\n            permissions[_permissions[i]] = true;\n        }\n        votes.length = _options.length;\n    }\n\n    function vote(uint _option) public \n                                    hasPermission(msg.sender)\n                                    isInVotingState() {\n        require(!hasVoted[msg.sender], \"You have already voted\");\n        votes[_option]++;\n        hasVoted[msg.sender] = true;\n    }\n    \n    function numberOfOptions() public view returns(uint) {\n        return options.length;\n    }\n\n    function viewVotes() public view returns(uint256[] memory) {\n        require(now >= votingEndTime, \"It's too early to see the votes\");\n        require(now < resultsEndTime, \"It's too late to see the votes\");\n        return votes;\n    }\n\n    function viewContractInfo() public view returns(string memory, address, bytes32[] memory, uint256, uint256) {\n        return (question, category, options, votingEndTime, resultsEndTime);\n    }\n    \n    function isPrivileged(address user) public view returns(bool) {\n        return permissions[user];\n    }\n}",
  "sourcePath": "/home/aw/pw/inżynierka/voting-dapp/contracts/VotingContract.sol",
  "compiler": {
    "name": "solc",
    "version": "0.5.1+commit.c8a2cb62.Emscripten.clang"
  },
  "schemaVersion": "3.0.0",
  "updatedAt": "2019-01-14T11:41:02.388Z",
  "devdoc": {
    "methods": {}
  },
  "userdoc": {
    "methods": {}
  }
}